:020000040800F2
:10000000900B0020650200084B4700083F3E0008A7
:10001000494700086D0800083F5400080000000030
:100020000000000000000000000000009F4A0008DF
:100030005F0B0008000000009D4A0008A14A00086C
:100040007F0200087F0200087F0200087F0200088C
:100050007F0200087F0200087F0200087F0200087C
:100060007F0200087F0200087F0200087F0200086C
:100070007F0200087F0200087F0200087F0200085C
:100080007F0200087F0200087F0200087F0200084C
:1000900055090008AD0900087F0200087F0200082A
:1000A0007F0200087F0200087F0200087F0200082C
:1000B0007F0200082D4B0008000000007F020008AE
:1000C0007F02000800000000000000007F0200081E
:1000D000000000007F0200087F0200087F02000885
:1000E0007F0200087F0200080000000000000000FE
:1000F0000000000000000000000000000000000000
:1001000000000000000000000000000000000000EF
:1001100000000000000000007F0200087F020008CD
:1001200000000000000000000000000000000000CF
:1001300000000000000000000000000000000000BF
:100140007F0200087F020008000000007F02000814
:10015000BD3800087F0200087F0200087F02000807
:100160007F0200087F02000800000000000000007D
:10017000000000000000000000000000000000007F
:10018000000000007F02000800F002F800F05AF8BA
:100190000AA090E8000C82448344AAF10107DA45E2
:1001A00001D100F04FF8AFF2090EBAE80F0013F0DA
:1001B000010F18BFFB1A43F00103184790660000B7
:1001C000D06600000A4410F8014B14F00F0508BF78
:1001D00010F8015B240908BF10F8014B6D1E05D013
:1001E00010F8013B6D1E01F8013BF9D1641E03D0EC
:1001F000641E01F8015BFBD19142E4D3704700001B
:10020000103A24BF78C878C1FAD8520724BF30C842
:1002100030C144BF04680C60704700000023002414
:1002200000250026103A28BF78C1FBD8520728BF06
:1002300030C148BF0B6070471FB505F0E8FF1FBD18
:1002400010B510BD00F001FA1146FFF7F5FF05F0FB
:100250004FF900F01FFA03B4FFF7F2FF03BC00F000
:1002600027FA00000948804709480047FEE7FEE7F3
:10027000FEE7FEE7FEE7FEE7FEE7FEE7FEE7FEE756
:1002800004480549054A064B704700001D4B00080D
:100290008901000890050020900B002090070020A5
:1002A0009007002053EA020C00F069802DE9F04B22
:1002B0004FF00006002B1FBFB3FA83F503FA05F4D5
:1002C00024FA05F65E4012BF1643B2FA82F502FA2E
:1002D00005F4C5F120051EBF22FA05FC44EA0C0412
:1002E000203556EA044C4FEA144418BF641C4FF002
:1002F00000084FF00009904271EB030C39D300293C
:1003000019BFB1FA81F701FA07F6B0FA80F700FADF
:1003100007F6C7F120071EBF20FA07FC46EA0C06C5
:100320002037B6FBF4FCA7EB0507103F07F01F0BC7
:10033000CBF120060CFA0BFB2CFA06F644BFB346B1
:100340000026202FA4BF5E464FF0000B5BEA060C90
:1003500008BF4FF0010B19EB0B09ABFB027C48EB1C
:100360000608C01B06FB02CC0BFB03CC71EB0C0197
:10037000C1E70B46024641464846BDE8F08B13B53F
:100380004FF000004FF00001AFF30080BDE81C40CB
:1003900070472DE9F04F9B4616464FF00109C1B05A
:1003A00020910090A9F1010920A85DF8295050F88A
:1003B0002900C5E04FEA6A0070432C185FEACA7151
:1003C00000D1801B5A46214627182846904700280E
:1003D0000EDD304646EA0501890765D02278297886
:1003E000401E05F8012B04F8011BF7D1AD1BA41B1F
:1003F0005A46394620469047002823DD5A4639465A
:100400002846904700280EDD304646EA0501890758
:1004100051D03A782978401E05F8012B07F8011BC6
:10042000F7D1AD1BBF1B304646EA0401890749D00E
:100430003A782178401E04F8012B07F8011BF7D108
:10044000A41BBF1B314646EA0402B81B920740D0EA
:1004500003782278491E04F8013B00F8012BF7D1FC
:100460002C46871BB84634445A464146204690479E
:100470000028F8DB5A464146BF1B38469047002803
:10048000F8DC304646EA0401A7424FEA81712ED9D2
:1004900031B33A782178401E04F8012B07F8011B8C
:1004A000F7D1A41BBF1BDEE722682968001F04C523
:1004B00002C4F9D19AE73A682968001F04C502C747
:1004C000F9D1AEE73A682168001F04C402C7F9D128
:1004D000B6E703682268091F08C404C0F9D1BFE762
:1004E0003A682168001F04C402C7F9D1D9E7E1B115
:1004F00098F800202178401E04F8012B08F8011B11
:10050000F6D1A21B501BB0FBF6F0401EAAEB000177
:10051000491E884216DD0A2910DD20AB4DF829500E
:1005200043F8290009F1010918E0D8F800202168F2
:10053000001F04C448F8041BF7D1E2E70A2810DDC5
:10054000824637E70A2807DD4DF8292020AA42F81D
:10055000291009F10109F3E70A2902DD15468A4647
:1005600028E7B9F1000F7FF41DAF41B0BDE8F08F6F
:100570002DE9F04799460F460646140039D0002F62
:1005800037D00A2F01D9FFF704FF7F1E354607FB3E
:1005900004582CE02F46254400E03F1BB74205D30A
:1005A0004A462946384690470028F6DC44EA0500CA
:1005B0003B1980070CD0002117E029180A1B0F688F
:1005C00002E011681151121B9A42FAD2001D175114
:1005D000A0420CD2F1E76818027801E007780755CD
:1005E000001B9842FAD2491C0255A142F3D345455B
:1005F000D0D3BDE8F0874FF0000200B51346944613
:100600009646203922BFA0E80C50A0E80C50B1F16A
:100610002001BFF4F7AF090728BFA0E80C5048BF7E
:100620000CC05DF804EB890028BF40F8042B08BF1C
:10063000704748BF20F8022B11F0804F18BF00F818
:10064000012B7047704770477047754600F02CF8D3
:10065000AE4605006946534620F00700854618B0AF
:1006600020B5FFF70DFEBDE820404FF000064FF02B
:1006700000074FF000084FF0000B21F00701AC46D7
:10068000ACE8C009ACE8C009ACE8C009ACE8C009F6
:100690008D46704710B50446AFF300802046BDE894
:1006A0001040FFF7D8BD0000004870472C0500201F
:1006B00001491820ABBEFEE726000200704740F259
:1006C0000D6CC1F2000C604740F6BB1CC1F2000C7F
:1006D000604740F2490CC1F2000C604740F2E73C31
:1006E000C1F2000C604740F2FB4CC1F2000C6047C5
:1006F00040F2D31CC1F2000C604740F2D15CC1F261
:10070000000C604740F6C90CC1F2000C604701467E
:10071000406A026C12F0500F03D0806B026B0846E7
:100720001047016C41F4007101640168C96811F45B
:10073000406F0CD1417E51B9016C21F4807101648C
:10074000016CC90403D4016C41F00101016400F0A3
:100750008DBC406A016C41F040010164416C41F084
:100760000401416400F084BC406A00F080BC0000D9
:10077000DFED071AC0ED041AC0ED031A80ED051A6B
:10078000C0ED020A80ED010A0160027670470000A8
:100790000000000070B504460068816801F00301A4
:1007A00001292AD10168C90727D0816801F00D010C
:1007B000012914D1816841F0020181602168032080
:1007C000086001F053FB054613E000BF01F04EFB4B
:1007D000401B02280DD920688068C00709D0206C12
:1007E00040F010002064606C40F001006064012063
:1007F00070BD20688068C007E8D1002070BD00008F
:1008000070B504460068816801F00301012902D136
:100810000168C90725D18168134A114212D1816844
:1008200041F00101816001F021FB054614E000BFA9
:1008300001F01CFB401B02280ED920680068C04351
:10084000C00709D0206C40F010002064606C40F0BC
:1008500001006064012070BD20680068C043C007CB
:10086000E6D1002070BD00003F000080FEE70000E0
:1008700030B58BB000240125CDE905454FF4BC60AF
:10088000079402904FF4B860009408950194CDE964
:1008900003046946154800F061FE08B100F060F9F4
:1008A0000221124800F0E4FD08B100F059F9CDE949
:1008B0000554079402940394009469460B480495E8
:1008C000019400F04BFE08B100F04AF910210748EE
:1008D00000F0CEFD08B100F043F9044801F000F942
:1008E000002801D000F03CF90BB030BDDC01002045
:1008F0002DE9F041002405460426C28803680CE077
:1009000033F83400884207D101F0B0FA296806EBC9
:10091000C4028850BDE8F081641CA242F0DCAF88BC
:100920000024BA4210D300200BE000BF06EBC40243
:1009300006EBC00C9A5853F80CC0624500D284B242
:10094000401C8742F2DC02E01446521CEA8023F885
:100950003410D9E700B58BB0114800F0EBFE114818
:1009600004AA00F114034168491C416000210C48AD
:1009700000F06CFE0B4808AB1430039093E80700BE
:100980008DE807000DF1100C9CE80F0000F062F8F4
:10099000049881B20448FFF7ABFF0BB000BD000024
:1009A000DC010020440000209800002000B587B042
:1009B0000A4800F0BFFE0A486A4600F11C0381683D
:1009C000491C81600121054800F040FE009881B279
:1009D0000448FFF78DFF07B000BD0000DC010020D8
:1009E000440000209800002000880988401A7047C1
:1009F0002DE9F0470026054634464FF004084FF431
:100A0000FA7916E02868A21B08EBC40730F8341006
:100A100020F83210296808EBC200CB590B5001F0C6
:100A200025FA2968C959401A484501D3761CB6B23F
:100A3000641CE888A042E5DC80B2801BE880BDE849
:100A4000F0870000C1880068014B0822FFF790BDC5
:100A5000E909000810B5284C05992E283AD02F280E
:100A600037D1087800EE100AB8EE400A84ED190A72
:100A7000887800EE100A2148B8EE400AD0ED040A4A
:100A80001F4880EE201A90ED040A21EE001A84ED32
:100A90001F1A087901EE100A88791A49B8EE411A2E
:100AA00008701949C1EE201A8A789FED181A60F370
:100AB00000028A70410814F8780FF1EE0C0A61F315
:100AC000010004F8140921EE800AFFF7F8FD84ED17
:100AD000070A10BD0888DFED0E0A40BA00EE100AC2
:100AE000B8EE400A80EE201A84ED1D1A01F0BEF91E
:100AF000C4F8880010BD0000680B0010300C001016
:100B0000F80B0010A0000020780A00100000000080
:100B10000000C842054A016811441422B1FBF2F1F9
:100B2000890001640249C16370470000F8FFFDBFFE
:100B30000000024030B590F840500124AC40C56B35
:100B40006C60046863604368102B036803D099608D
:100B50000068C26030BD9A600068C16030BD7047F7
:100B600072B6BFF34F8F05480168054A01F4E06192
:100B700011430160BFF34F8F00BFFDE70CED00E0B4
:100B80000400FA05C2888A4201D800207047006834
:100B900030F831007047C088704700002DE9F041FF
:100BA000044690F83C00884601280AD0012584F8C4
:100BB0003C502046FFF7EEFD06004FF0000703D043
:100BC00037E00220BDE8F08125642068816821F0CB
:100BD00080418160B8F1010F04D12068816841F043
:100BE000804181602068816841F00041816001F0AE
:100BF0003DF9054613E000BF01F038F9401B0A2813
:100C00000DD920688068002809DA206C20F00200E5
:100C100040F01000206484F83C700120D2E7206886
:100C200080680028E8DB206C20F0020040F0010022
:100C3000206484F83C703046C4E7000070B5026858
:100C400000234FF0A04494B0A24200D1314C009454
:100C500090F83C40012C1FD0012480F83C40926861
:100C600052074CD4009A9268520748D42A4A0D6819
:100C700040F61F7445B3956890F8306025F46045E0
:100C800045EA46354E68354395600568AE6806F01E
:100C90000306012E06D102E0022014B070BD2D68BB
:100CA000ED0731D1009DAD6805F00305012D03D19D
:100CB000009D2D68ED0727D10D6889680D43916867
:100CC000A1430D4395601FE0916821F4604191605C
:100CD00001688D6805F00305012D02D10968C90777
:100CE00012D10099896801F00301012903D100990B
:100CF0000968C90708D19168A143916004E0016CBB
:100D000041F0200101640123002180F83C101846C5
:100D1000C3E700000001005000030050F0B594B09C
:100D20000025009590F83C202E46012A19D0012775
:100D300080F83C7003689A6852077CD44A681F2484
:100D4000052A11D2D3F830C002EB4202520094407F
:100D50002CEA040C0C6894404CEA040CC3F830C034
:100D600035E0022014B0F0BD0A2A0FD2D3F834C007
:100D7000521F02EB4202520094402CEA040C0C6811
:100D800094404CEA040CC3F834C020E00F2A0FD280
:100D9000D3F838C00A3A02EB4202520094402CEADF
:100DA000040C0C6894404CEA040CC3F838C00EE004
:100DB000D3F83CC00F3A02EB4202520094402CEAB6
:100DC000040C0C6894404CEA040CC3F83CC0026864
:100DD000936813F00C0F4FF0070374D1D1F800E0C3
:100DE000BEF10A0F10D39469AEF10A0E0EEB4E0C51
:100DF00003FA0CFE24EA0E04D1F808E00EFA0CFE09
:100E000044EA0E0494610FE0D2F814C00EEB4E04D5
:100E100003FA04FE2CEA0E0CD1F808E00EFA04FEE8
:100E20004CEA0E0CC2F814C002684C69D2F80CC02F
:100E3000CCF3C10C00E0E1E04FEA4C0C04FA0CF4F6
:100E4000D1F810E0DFF810C2BEF1010F42D0BEF1C0
:100E5000020F4DD0BEF1030F58D0BEF1040F63D086
:100E6000146E91F800C004F0F844B4EB8C6F03D119
:100E7000146E24F0004414660268546E91F800C0A9
:100E800004F0F844B4EB8C6F03D1546E24F00044AA
:100E900054660268946E91F800C004F0F844B4EB14
:100EA0008C6F03D1946E24F0004494660268D46E73
:100EB00091F800C004F0F844B4EB8C6F03D1D46E09
:100EC00024F00044D4660268946804F00304012C02
:100ED0003AD136E0D2F860E00EEA0C0E91F800C08C
:100EE00044EA8C644EEA040E4EF000441466EAE7CD
:100EF000D2F864E00EEA0C0E91F800C044EA8C646B
:100F00004EEA040E4EF000445466DCE7D2F868E086
:100F10000EEA0C0E91F800C044EA8C644EEA040E0E
:100F20004EF000449466CEE7D2F86CE00EEA0C0E68
:100F300091F800C044EA8C644EEA040E4EF000447E
:100F4000C0E71468E4075ED1CC68012C06D052F8E3
:100F5000B03F0C78A740BB43136020E052F8B04F7D
:100F600091F800C007FA0CF73C4314600A68046863
:100F70000A2A0AD3A769093A02EB420293409F4327
:100F80008B6893401F43A76109E06769521C02EB1D
:100F9000420293409F438B6893401F4367610968F7
:100FA0002E4A102904D0112905D0122906D02AE092
:100FB00093681B0204E09368DB0101E093685B0225
:100FC000002B20DB03684FF0A044A34202D1244F42
:100FD000009700E000949F6807F00307012F02D1FB
:100FE0001F68FF070AD1009F8FB1BF6807F0030792
:100FF000012F0CD1009F3F68FF0708D0016C41F022
:1010000020010164012580F83C602846AAE61029E9
:1010100008D011291AD01229F5D1916841F4800124
:101020009160F0E7A342EED1916841F40001916034
:101030000C490D4A0968B1FBF2F101EB810149004D
:1010400000E0491E00910029FBD1DCE7A342DAD180
:10105000916841F08071E3E700F0FF8300030050E6
:10106000000100507400002040420F00704770479C
:1010700070470000F0B54FF0000595B004002F4612
:101080002E46009505D0206CC00649D4206C18B1BE
:1010900034E0012015B0F0BD6664E664A66484F80F
:1010A0003C60204600F0DAF820688068C00025D453
:1010B0002046FFF76FFB0546206C00F01001294326
:1010C0001CD1206C20F4885040F00200206420687D
:1010D000816821F0405181602068816841F0805131
:1010E0008160584858490068B0FBF1F000EB80007F
:1010F000400000E0401E00900028FBD1206881687D
:10110000C90002D5806880000AD5206C20F002005A
:1011100040F010002064606C40F001006064012524
:10112000206C00F0100028437DD1206881684907B9
:101130007ED4216C21F4807141F002012164434985
:101140004FF0A042904200D1414A0092826802F0E2
:101150000302012A02D10068C00710D1009840B1F3
:10116000806800F00300012803D100980068C007E0
:1011700005D18868626820F4403010438860D4E963
:1011800002100843616B012902D04FF4805200E045
:101190000022617E42EA4132104394F82020384315
:1011A000012A0AD1A9B1216C21F0020141F02001EC
:1011B0002164616C41F001016164A16A012902D0DE
:1011C000E26A1143084321688A6812F00C0F08D0C4
:1011D00013E0A18C1F4A02EB4141014341F48030EE
:1011E000EBE7CA6844F202039A43CA60217E94F88E
:1011F0003020890341EA420108432168CA68164B3E
:101200001A400243CA60206901282068016B21F05E
:101210000F0102D1E269521E114301636664206C22
:1012200020F0020000E003E040F00100206406E04E
:10123000206C20F0020040F01000206401252846B8
:1012400028E700007400002040420F000003005017
:10125000000100500000FEFF07C0F0FF2DE9F04F35
:1012600087B0054614216846FFF7C5F9394AD5F815
:1012700000C000241068032780263749401C4FF027
:1012800090434FF480794FF4806A4FF0200BBCF10B
:10129000A04F07D0DFF8C480C4452AD110600128D0
:1012A0002AD031E01060012807D1486940F0805011
:1012B0004861486900F080500590486940F400306A
:1012C00048614869694600F4003005900F20CDE977
:1012D00000070294184600F0A7FC224F2048C7E9F7
:1012E00000044FF40050C7E906B0384627E0AF636A
:1012F0007D6207B0BDE8F08F486940F080504861DA
:10130000486900F080500590486940F40030486119
:101310004869694600F4003005905020CDE9000787
:101320000294184600F080FC0D480E4F14304437EC
:10133000C7E900044FF40050C7E906B0384607F18A
:10134000080282E8500600F0FEFB0028CFD0FFF72D
:1013500007FCCCE7400000200010024000010050D4
:1013600008000240540100202DE9F04704460068BF
:1013700090468946806840076ED494F83C00012866
:101380000CD001204FF0A04684F83C00D6F80803AA
:101390004FF00007C00604D0012507E00220BDE899
:1013A000F0872046FFF72CFA050002D084F83C7045
:1013B00053E0206C40F60161884340F48070206463
:1013C000D6F80803C00602D02068B04206D1206CCF
:1013D00020F4801020642068C06807E0216C41F48C
:1013E000801121641E49884208D1F068800105D52A
:1013F000206C20F4005040F480502064206CC00425
:1014000004D5606C20F00600606400E0676484F836
:101410003C70A16B13488862A16B1348C862A16B32
:101420001248086321681C2008602068416841F068
:10143000100141602068C16841F00101C16021686C
:1014400043464A464031A06B00F0A4FB2068816807
:1014500041F00401816000E0022528469FE700007A
:10146000000100500F070008690700085307000833
:1014700090F82020012A07D0022A05D0416A41F4C1
:101480008021416201207047006842690A4342613D
:1014900000207047F0B590F820500468A468012D32
:1014A00005D0022D03D0416A41F4802153E014F0AD
:1014B000406F01D1E5004BD5C4F30164022C03D980
:1014C000416A41F4000146E00125A5401D608D6898
:1014D0004FF4C0739DB1CE6835434E6845EAC605EA
:1014E000066803EB0417F5514FF4C275076805EB66
:1014F00004150E697E51097D012905D009E00E8889
:10150000CD6845EA4655EBE701684E5946F48076CA
:101510004E511179D2F805504FF4C67641EA0525AF
:10152000016806EB04168D511178D2F801204FF4B2
:10153000C47541EA0221026805EB041551510068A7
:1015400003EB0411425842F0010242500020F0BD6A
:10155000416A41F4001141620120F0BD10B590F8DC
:1015600020300268012B07D0022B05D0416A41F4DC
:1015700080214162012010BDD2F8000240F001003C
:10158000C2F80002087D00F01F0301209840D2F845
:101590001C328343C2F81C32CB69B3B9D2F80C3287
:1015A0008343C2F80C328C894B6864F31F434C6947
:1015B00002EBC404C4F840320C890B6864F31F4387
:1015C0004C6902EBC404C4F84432CB69012B16D138
:1015D000D2F80C320343C2F80C320C884B6864F327
:1015E0001F434C6902EBC404C4F840320C89CB6839
:1015F00064F31F434C6902EBC404C4F844328B69A2
:10160000002BD2F804320FD053EA0003C2F80432A0
:101610000B69002BD2F8143208D00343C2F81432FD
:10162000096A012904D008E08343EFE78343F5E723
:10163000D2F81C120143C2F81C12D2F8000220F0AA
:101640000100C2F80002002010BD704730B590F8CC
:101650002040012C05D0022C03D0416A41F48021A6
:101660005DE00468002955D02469A40754D04FF4E4
:10167000D874056804EB01142D5915F00405956024
:1016800005682D594ED0ED08556005682C5904F0B9
:101690000204D4604FF4DA74056804EB01142D5988
:1016A00005F00F05156105682D59C5F307259561EE
:1016B00005682C59240C54614FF4DC72046802EB69
:1016C0000112A4581C700468A458240A5C700468B1
:1016D000A458240C9C700468A258120EDA704FF4BF
:1016E000DE72046802EB0112A4581C710468A4584D
:1016F000240A5C710468A458240C9C710468A258E4
:10170000120EDA71006881B1016941F020010161B6
:10171000002030BDE468A8E7416A41F4001141624D
:10172000012030BD6D0D1560AFE7C16841F02001AB
:10173000C160EDE72DE9F05F0546006800244669C9
:10174000D0F804908768D0F80CB0D0F810A0D0F88A
:101750001880F10748D0F90714D001218160B8073B
:1017600003D5284600F0E9F90CE0780702D54FF4DC
:10177000006407E0380702D54FF4805402E02846A1
:1017800000F0DAF9F80516D529684FF48070886002
:10179000B80503D5284600F0D2F90CE0780502D54B
:1017A00044F4005407E0380502D544F4804402E0D4
:1017B000284600F0C3F9F80316D529684FF48030A5
:1017C0008860B80303D5284600F0BBF90CE0780325
:1017D00002D544F4004407E0380302D544F48034D1
:1017E00002E0284600F0ACF9300707D55FEACB608D
:1017F00004D52968102044F40074C86070074FF0C5
:10180000080707D55FEA0B7004D52868C76028462B
:1018100000F060F9B00706D52868C068800702D0DC
:10182000284600F058F9700607D55FEACA6004D56B
:101830002968102044F480640861B00607D55FEA87
:101840000A7004D528680761284600F045F9F006BB
:1018500006D528680069800702D0284600F03DF9C7
:10186000B00308D55FEAC96005D529681020486033
:10187000284600F033F9F00307D55FEA097004D574
:1018800028684760284600F05DF9300446D55FEAD5
:10189000497040D5F00504D55FEAC87001D044F026
:1018A0000104B00504D55FEA887001D544F0020454
:1018B000700504D55FEA487001D544F00404300592
:1018C00029D518F0700F26D008F07000402815D0E8
:1018D00006DC102809D020280AD0302816D10AE0CA
:1018E00050280ED0602811D10EE044F008040DE01D
:1018F00044F010040AE044F0200407E044F04004FF
:1019000004E044F0800401E044F4807428688169B4
:1019100021F070018161296804204860002C05D005
:10192000686A204368622846FFF78FFEBDE8F09F93
:1019300070B5040003D094F8200010B104E0012039
:1019400070BD204600F082F82068016841F0010176
:10195000016000F08BFA0546052604E000F086FAE7
:10196000401B0A2811D820684068C007F6D02068BC
:10197000016821F00201016000F078FA05460BE0F1
:1019800000F074FA401B0A2806D9606A40F400305F
:10199000606284F82060D2E7206840688007EFD456
:1019A000207E0128206801683DD021F0800101607F
:1019B000607E01282068016838D021F04001016074
:1019C000A07E01282068016833D021F02001016049
:1019D000E07E0128206801682ED041F010010160EE
:1019E000207F01282068016829D021F008010160CA
:1019F000607F01282068016824D021F00401016083
:101A0000D4E902010843D4E9041211430843616890
:101A1000491E08432168C86100206062012084F8E3
:101A20002000002070BD41F08001C0E741F040017E
:101A3000C5E741F02001CAE721F01001CFE741F0EE
:101A40000801D4E741F00401D9E7000010B586B0E1
:101A5000044614216846FEF7CEFD1B4920688842E3
:101A60002FD11A48C16941F00071C161C16901F00B
:101A700000710591416941F48021416140696946E5
:101A800000F4802005904FF44070009002200190F7
:101A90000020029003200390092004900C4800F0DD
:101AA000C3F800220221142000F0DAFD142000F017
:101AB000C9FD00220621152000F0D2FD152000F0FE
:101AC000C1FD06B010BD00000064004000100240DF
:101AD0000004004870477047704770477047000027
:101AE00070B5044690F82000012804D0606A40F4E4
:101AF0000020606218E0022084F82000206801685D
:101B000021F00101016000F0B1F905460EE000BFCF
:101B100000F0ACF9401B0A2808D9606A40F4003094
:101B20006062052084F82000012070BD20684068B4
:101B3000C007EDD1606270BD704770477047704755
:101B400070477047704770B5040021D0022084F8B8
:101B500021002268116843F6F0708143D4E9010343
:101B60001843D4E903352B43184363691843A36929
:101B70001843E3691843084310602046FEF7CAFF84
:101B80000020A063012184F8211084F8200070BD9A
:101B9000012070BD70B5044690F820000025012892
:101BA0000CD0012084F8200094F821600020012E40
:101BB00006D084F820000225284670BD022070BDA2
:101BC000022684F82160A0632068066826F00106DA
:101BD00006602046FEF7AEFFE06A00282068016834
:101BE00002D041F00E0106E041F00A0101602068D8
:101BF000016821F0040101602068016841F00101E1
:101C00000160D9E770B5044600F030F90546601C64
:101C100002D004480078044400F028F9401BA04298
:101C2000FAD370BD680000202DE9F04FDFF8009274
:101C3000002309F1040A012603250AF1040B85B0EB
:101C40000F270BF1040EEAE006FA03F422407CD0E1
:101C500091F804C00CF0030CBCF1010F02D0BCF1F0
:101C6000020F26D1D0F808C0CDF800C04FEA430CCF
:101C700005FA0CF8CDF810C0DDF800C02CEA080C0D
:101C8000CDF800C0D1F80C80DDF810C008FA0CF8CF
:101C9000DDF800C048EA0C08C0F80880D0F804C09D
:101CA0002CEA040C0C79C4F300149C4044EA0C04A4
:101CB00044600C79E443A4070DD0D0F80CC04FEA7F
:101CC000430805FA08F42CEA040C8C6804FA08F4BA
:101CD00044EA0C04C4600C7904F00304022C19D10A
:101CE000DC0800EB84040294246A4FEA437C4FEA48
:101CF000DC6CCDF810C007FA0CFC24EA0C04D1F817
:101D00001080DDF810C008FA0CF848EA0408029CBC
:101D1000C4F8208004684FEA430805FA08FC24EA66
:101D20000C0491F804C00CF0030C0CFA08FC4CEA0B
:101D3000040CC0F800C04C6814F4403F6ED03D4C19
:101D4000D4F818C04CF0010C00E067E0C4F818C0EB
:101D5000A46923F0030C04F001040094364C64449D
:101D60000294A4684FEA837C4FEA1C7807FA08FCC7
:101D700024EA0C04B0F1904F06D0DFF8C0C06045F3
:101D800005D14FF0010C12E04FF0000C0FE0DFF82E
:101D9000B0C0604502D14FF0020C08E0DFF8A4C0EB
:101DA000604502D14FF0030C01E04FF0050C0CFA36
:101DB00008FC4CEA040C029CC4F808C0D9F80040A6
:101DC000CC46D1F8048094435FEAC83800D5144368
:101DD000CCF80040DAF80040D446D1F804809443AF
:101DE0005FEA883800D51443CCF80040DBF80040A7
:101DF000DC46D1F8048094435FEAC82800D5144338
:101E0000CCF80040DEF80040F446D1F8048094435A
:101E10005FEA882800D51443CCF800405B1C0A68B0
:101E200032FA03F47FF410AF05B0BDE8F08F000084
:101E3000000401400010024000000140000400487E
:101E400000080048000C00480069084000D001204C
:101E50007047426921EA02030A4043EA0241816174
:101E600070470AB18161704781627047014880689C
:101E70007047000068000020F0B590F8C130022BD8
:101E800027D090F8C030012B23D0012580F8C05016
:101E9000022380F8C1300468D4F880330026012979
:101EA00019D0022921D004292BD0082935D00721A7
:101EB00080F8C11080F8C06090F8C110072938D0B0
:101EC0000168C1F8803380F8C15080F8C0600020FC
:101ED000F0BD0220F0BD23F4E021136803F4E023F9
:101EE0000B435168C4F8BC13E6E723F46011136890
:101EF0004FF4601707EAC3030B435168C4F8C013DB
:101F0000DAE723F0E07113684FF0E07707EA831314
:101F10000B435168C4F8C413CEE723F06061136823
:101F20004FF0606707EA43230B435168C4F8C813B6
:101F3000C2E70120F0BD7047704770477047704797
:101F4000704770477047704710B590F8C020012A5D
:101F500021D0012280F8C020022380F8C1304B1C20
:101F60001BD00368D3F8CC4344F00204C3F8CC433D
:101F70000368D3F8CC4324F00C040C43C3F8CC43DF
:101F80000168D1F8CC3343F00103C1F8CC3380F8B9
:101F9000C120002010BD022010BD0168D1F8CC3353
:101FA00023F00203C1F8CC33EAE7000070B590F8E3
:101FB000C130022B3CD090F8C030012B38D0012525
:101FC00000F8C05F022343701388948803F4E05341
:101FD000C4F308041C4313896FF07E4603F40073B6
:101FE0002343148A04F480441C43938903F400437C
:101FF0002343948A06EA04441C43936903F0007364
:102000002343146AD26904F080441C4302F0004266
:10201000224350F8C03CB82404EBC1141959054EB2
:10202000314011431951457000210170084670BDBF
:10203000022070BD0020003C704770477047704719
:1020400070477047FF2903D0052903D001F0A3BDD5
:1020500001F079BC01F0C0BC38B5040054D00220B6
:1020600084F8C1000025C4F8C450C4F8C850C4F8AE
:10207000CC50C4F8D050C4F8D450C4F8D850207A0A
:10208000C0071BD021492068884208D120488169B7
:1020900041F000518161806900F00050009021689A
:1020A000086820F44042208A00F44040104320F4A5
:1020B0004052A08A00F4405010430860204600F0CF
:1020C00029F8207A800708D52168086820F4407232
:1020D000A08900F4407010430860012084F8C1001A
:1020E00084F8C0505FF00001C1EBC10004EB800038
:1020F000491C8561C561056245628562C9B2056397
:102100000529F1D9002038BD012038BD00740140F7
:102110000010024008B500680B49884212D10B48F4
:10212000816941F0005181618069002200F0005016
:1021300000900121442000F093FABDE808404420BB
:1021400000F080BA08BD0000007401400010024099
:10215000F0B587B0044614216846FEF74CFA1549DD
:102160002068884224D11448416941F4003141611A
:102170004069022400F4003005904FF44070CDE92E
:10218000000402AA012003250D2682E861004FF019
:10219000904769463846FFF747FDA802CDE900049D
:1021A00002AA002082E8610069463846FFF73CFD3C
:1021B00007B0F0BD00740140001002407047704746
:1021C0007047704770B50D460446FFF74FFE064650
:1021D00007E0681C05D0FFF749FE801BA8420DD818
:1021E00065B12068D0F88803C043C003F1D4012052
:1021F00084F8C100002084F8C00070BD072084F876
:10220000C100032070BD704770477047704770B5BC
:1022100090F8C130022B23D0022380F8C130052969
:1022200020D08023046803EBC115635923F007060F
:102230009368334323F01806D368334363519425DE
:10224000046805EBC115136863519824036804EB17
:10225000C11152685A50012180F8C110002070BD90
:10226000022070BD0368196821F0070491682143BA
:1022700021F01804D168214319600368116859617D
:10228000516802689161E6E72DE9F04F90F8C1408E
:10229000022C25D090F8C040012C21D04FF001092C
:1022A00080F8C090022480F8C14000274FF0070C4E
:1022B000052918D09C2404EBC116012A39D08024AA
:1022C000A8254FF4005A4FF4405B05EBC11504EB11
:1022D000C114022A2FD0042A45D0082A0BD144E089
:1022E0000220BDE8F08F012A0AD0022A0CD0042A6D
:1022F0000ED0082A10D080F8C1C080F8C0700EE05F
:1023000002681968D1610AE002681968516206E042
:1023100002681968916202E002681968D16290F857
:10232000C110072948D080F8C19080F8C070002003
:10233000D7E7196835E04FF0A408D0F800C008EBE3
:10234000C1111A684CF801205968002901680A591E
:1023500022F440522ED00A5101680A59D3F804C021
:1023600042EA0C0218E0196821E04FF0AC08D0F8FE
:1023700000C008EBC1111A684CF801205968002907
:1023800001680A5922F4404214D00A5101680A59DE
:10239000D3F804C042EA8C020A515968514503D16E
:1023A000996802689151BAE75945B8D199680268AD
:1023B0005151B4E70A51B2E7012092E710B590F805
:1023C000C020012A0ED0012200F8C02F0223437042
:1023D00050F8C03C1C680C431C6042700021017026
:1023E000084610BD022010BD70B5044690F8C1002B
:1023F000022811D094F8C00001280ED0012584F8DD
:10240000C050022084F8C100204601F05DFB84F832
:10241000C150002084F8C00070BD022070BD10B50E
:1024200090F8C020012A10D0012200F8C02F02230A
:10243000437050F8C03CD3F898430C43C3F898431A
:10244000427000210170084610BD022010BD2DE928
:10245000F041054690F8C10014460E46022825D0EA
:1024600095F8C000012823D0012785F8C07002200C
:1024700085F8C100052E1DD0284601F03FFCC6EBB3
:10248000C60005EB80002168016261684162A168B5
:102490008162E168C162216901633146284601F029
:1024A00025FA85F8C170002085F8C000BDE8F081EC
:1024B0000220FBE728680168D0F8A02321F0200360
:1024C0006169194321F40063A169194321F4806310
:1024D000E169194321F0C063216A194321F00063C7
:1024E000616A1943A36A21F0404141EA830121F066
:1024F0000053216B194322F48033E26A01601A43CE
:102500002868C0F8A023BAE7074908B58A6942F0ED
:1025100001028A61896901F00101009103490A6899
:1025200002430A6008BD00000010024000000140A4
:1025300070B5040011D021684CF6CC4008602168C9
:1025400045F255500860D4E9000141602168A06857
:102550008860FFF78BFC05460DE0012070BD00BFD1
:10256000FFF784FC401B272805D92068C068400776
:1025700001D0032070BD2068C0684007F0D12068FA
:102580000269E1688A4201D0016102E04AF6AA21AB
:102590000160002070BD00684AF6AA210160002099
:1025A00070470000024881680278114481607047DA
:1025B00068000020074810B5016841F01001016073
:1025C000032000F06DF80F2000F006F800F024F86A
:1025D000002010BD0020024070B50D4D04464FF4A0
:1025E0007A712878B1FBF0F00A490968B1FBF0F084
:1025F00000F01AFD48B9102C07D200222146501EC7
:1026000000F02EF800206C6070BD012070BD00004D
:102610006800002074000020094808B5816941F075
:1026200001018161816901F001010091C16941F0FD
:102630008051C161C06900F08050009008BD000069
:1026400000100240002809DB00F01F020121914028
:102650004009800000F1E020C0F800117047000040
:10266000F0B40E4B1B680C46C3F30223C3F10705FD
:10267000042D00D90425191D072901D2002300E0EB
:10268000DB1E012606FA05F1491E214099409E40B5
:10269000761E16403143F0BC02F0D2BE0CED00E0D5
:1026A000064900F0070208684FF6FF03184040EAA9
:1026B0000220034A10430860704700000CED00E060
:1026C0000000FA052DE9F84F0446006800265C4D2D
:1026D000C0036ED5E869C00008D4E86940F08050B6
:1026E000E861E869012600F08050009055480168D3
:1026F000C90512D40168804641F480710160FFF77A
:10270000B5FB074605E000BFFFF7B0FBC01B642820
:1027100035D8D8F80000C005F6D5286A10F4407006
:1027200053D0A18801F4407181424ED0286A4FF401
:10273000803191FAA1F2B2FA82F29700424A4FF048
:102740000108174420F44070C7F8008491FAA1F101
:10275000B1FA81F102EB81010023C1F80034286253
:10276000C00732D0FFF782FB074641F2883A4FF0AC
:10277000020907E0FFF77AFBC11B514502D903208C
:10278000BDE8F88F99FAA9F1B1FA81F141F0400161
:102790004846B8EB511F01D129680CE090FAA0F12E
:1027A000B1FA81F141F04001B0EB511F02D1296A29
:1027B00001E015E0696A99FAA9F0B0FA80F000F03A
:1027C0001F0008FA00F21142D4D0286A616820F490
:1027D0004070084328621EB1E86920F08050E8612B
:1027E0002078C00705D0286BA16820F003000843BB
:1027F00028632078800605D5286BE16820F010005A
:10280000084328632078000605D5E86A216920F48A
:10281000F8700843E8622088C00405D5286B616918
:1028200020F48070084328632088400405D5286B75
:10283000A16920F48050084328630020A0E700002D
:102840000010024000700040000042422DE9F047B5
:102850000F46050069D04A4E306800F00700B842C4
:1028600009D2306820F0070038433060306800F04B
:102870000700B84259D12878424C800705D56068D6
:10288000A96820F0F000084360602878C0073DD0B8
:102890006968012001290DD0022923D05FF00203CD
:1028A00093FAA3F2B2FA82F242F02002520904D063
:1028B000226803E04FF40033F2E7626A93FAA3F36D
:1028C000B3FA83F303F01F03984002422DD06068EF
:1028D00020F0030008436060FFF7C8FA804641F229
:1028E00088390CE04FF00073DAE700BFFFF7BEFA5B
:1028F000A0EB0801494502D90320BDE8F0876068D4
:10290000696800F00C00B0EB810FEFD1306800F087
:102910000700B8420BD9306820F007003843306018
:10292000306800F00700B84201D00120E5E72878C0
:10293000400705D56068E96820F4E06008436060FE
:102940002878000706D56068296920F4605040EABD
:10295000C100606000F04EF86168F02292FAA2F2C5
:1029600001F0F001B2FA82F2D140074A515CC8404E
:102970000649086006480068FFF72EFE0020BCE705
:102980000020024000100240426200087400002053
:102990006C00002008480949006849684FF4E0626B
:1029A00092FAA2F201F4E061B2FA82F2D140044A52
:1029B000515CC840704700007400002000100240C5
:1029C0005262000808480949006849684FF460529B
:1029D00092FAA2F201F46051B2FA82F2D140044AB2
:1029E000515CC84070470000740000200010024095
:1029F00052620008164A10B55168164801F00C03DF
:102A0000042B20D0082B1ED14FF4701494FAA4F498
:102A100001F47013B4FA84F4E3400F4CD26AE45C1E
:102A20000F2393FAA3F302F00F02B3FA83F3DA4011
:102A3000094B1033C9039A5C06D500231946FDF7EC
:102A400031FCA0FB040110BD0448A4FB000110BD33
:102A50000010024000127A002262000800093D00C6
:102A60002DE9F84F050071D02878FC4EC0074FF0D3
:102A7000010425D070686704C0F38100012807D0E5
:102A80007068C0F3810002281BD17068C00318D59C
:102A900097FAA7F0B0FA80F040F02000400901D08A
:102AA000306800E0706A97FAA7F1B1FA81F101F09D
:102AB0001F0104FA01F1084265D068680028D2D0ED
:102AC00061E06868B0F5803F0BD010B1B0F5A02F81
:102AD00017D0306820F480303060306820F48020D7
:102AE00002E0306840F480303060F06AA96820F07D
:102AF0000F000843F062686820B3FFF7B7F980461B
:102B00000AE0306840F480203060EAE7FFF7AEF971
:102B1000A0EB0800642871D897FAA7F0B0FA80F00B
:102B200040F02000400901D0306800E0706A97FA58
:102B3000A7F1B1FA81F101F01F0104FA01F1084295
:102B4000E4D020E0FFF792F9804607E0C2E000BF42
:102B5000FFF78CF9A0EB08006428DCD897FAA7F0FF
:102B6000B0FA80F040F02000400901D0306800E069
:102B7000706A97FAA7F1B1FA81F101F01F0104FA26
:102B800001F10842E4D12878DFF8D48280074FF0C1
:102B9000000A4FF0020730D570684FF0F80B10F0C4
:102BA0000C0F07D07068C0F38100022827D170682D
:102BB000C00324D497FAA7F0B0FA80F040F02000C8
:102BC000400901D0306800E0706A97FAA7F1B1FAC5
:102BD00081F101F01F0104FA01F1084202D02869D5
:102BE000012877D130689BFAABF220F0F8016869D0
:102BF000B2FA82F29040014331605AE064E1286900
:102C000088B394FAA4F0B0FA80F048F82040FFF7B7
:102C10002DF9814606E000BFFFF728F9A0EB090077
:102C200002289AD897FAA7F0B0FA80F040F0200076
:102C3000400901D0306800E0706A97FAA7F1B1FA54
:102C400081F101F01F0104FA01F10842E4D030687B
:102C50009BFAABF26969B2FA82F220F0F800914077
:102C60000843306025E0FFE794FAA4F0B0FA80F062
:102C700048F820A0FFF7FAF8814605E0FFF7F6F8DC
:102C8000A0EB09000228CCD897FAA7F0B0FA80F0A0
:102C900040F02000400901D0306800E0706A97FAE7
:102CA000A7F1B1FA81F101F01F0104FA01F1084224
:102CB000E4D1287800076CD5A869A8B394FAA4F0E9
:102CC000B0FA80F008EB8000C0F88044FFF7CEF83F
:102CD000814607E0A4E100BFFFF7C8F8A0EB0900B8
:102CE00002289ED897FAA7F0B0FA80F040F0600072
:102CF000B4EB501F01D130680BE097FAA7F0B0FA9F
:102D000080F040F06000B7EB501F01D1306A00E066
:102D1000706A97FAA7F1B1FA81F101F01F0104FA84
:102D200001F21042D8D034E0FFE794FAA4F1B1FAEE
:102D300081F108EB8101C1F880A4FFF797F8814683
:102D400006E000BFFFF792F8A0EB090002289AD82E
:102D500097FAA7F0B0FA80F040F06000B4EB501F93
:102D600001D130680BE097FAA7F0B0FA80F040F09C
:102D70006000B7EB501F01D1306A00E0706A97FA2B
:102D8000A7F1B1FA81F101F01F0104FA01F210423A
:102D9000D8D12878400768D5F0694FF00009C00005
:102DA00009D4F06940F08050F061F0694FF00109FA
:102DB00000F0805000902B480168C90512D40168CA
:102DC00041F480710160FFF751F8834606E000BFCF
:102DD000FFF74CF8A0EB0B00642875D82148006879
:102DE000C005F5D5E86801280AD008B1052811D03A
:102DF000306A20F001003062306A20F0040002E006
:102E0000306A40F001003062E86868B3FFF72EF8DE
:102E100083460DE0306A40F004003062F0E700BF06
:102E2000FFF724F8A0EB0B0141F2883081424BD828
:102E300097FAA7F0B0FA80F040F04000B4EB501FD2
:102E400001D1306813E097FAA7F0B0FA80F040F0B3
:102E50004000B7EB501F09D1306A08E00010024073
:102E600000004242007000400CE040E0706A97FAB7
:102E7000A7F1B1FA81F101F01F0104FA01F2104249
:102E8000CED02DE0FEF7F2FF834607E0FEF7EEFF1F
:102E9000A0EB0B0141F28830814215D897FAA7F0D8
:102EA000B0FA80F040F04000B4EB501F01D1306820
:102EB0000CE097FAA7F0B0FA80F040F04000B7EBD2
:102EC000501F02D1306A01E083E0706A97FAA7F1DF
:102ED000B1FA81F101F01F0104FA01F21042D5D1DB
:102EE000B9F1000F03D0F06920F08050F061E8697B
:102EF00080B37168C1F38101022977D04FF08071EE
:102F00004F000228504609D091FAA1F1B1FA81F19F
:102F100048F82100FEF7AAFF05465DE0894691FAD0
:102F2000A1F1B1FA81F1C24648F82100FEF79EFFF7
:102F3000804605E0FEF79AFFA0EB0800022848D87B
:102F400097FAA7F0B0FA80F040F02000400902D0D4
:102F5000306801E066E0706A97FAA7F1B1FA81F192
:102F600001F01F0104FA01F10842E3D1D5E908108C
:102F70000843716821F474110843706099FAA9F04C
:102F8000B0FA80F04AF82040FEF770FF054604E0F2
:102F9000FEF76CFF401B02281BD897FAA7F0B0FA87
:102FA00080F040F02000400901D0306800E0706AF5
:102FB00097FAA7F1B1FA81F101F01F0104FA01F1CA
:102FC0000842E5D02EE000BFFEF750FF401B02286C
:102FD00002D90320BDE8F88F97FAA7F0B0FA80F085
:102FE00040F02000400902D0306801E00BE0706A38
:102FF00097FAA7F1B1FA81F101F01F0104FA01F18A
:103000000842E1D10EE00128E4D070682A6A00F499
:103010008031914204D1696A00F47010884201D075
:103020000120D7E70020D5E710B5401EB0F1807F22
:1030300001D3012010BD4FF0E02460610F21601723
:1030400002F0FEF90020A06107202061002010BDE1
:10305000704770477047000030B590F83C20012A57
:1030600037D0012280F83C20CA688C6822F4407274
:1030700022434C6822F4806222430C6822F40062EE
:1030800022430C6922F4805222434C6922F40052FC
:1030900022438C6A22F4804222430C8B22F4702259
:1030A00042EA04420C4D04680023AC420CD18D8CE2
:1030B00022F4700242EA0552CD6922F080722A435E
:1030C000096A22F000720A43626480F83C300020F2
:1030D00030BD022030BD0000002C0140F0B590F85A
:1030E0003C20012A2CD0012480F83C40022280F8A8
:1030F0003D2003685A689D68124EB34203D122F402
:1031000070074A683A4322F070070A683A435A60E7
:103110000268B24208D0B2F1804F05D00A4B9A4201
:1031200002D00A4B9A4204D1896825F080031943E2
:10313000916080F83D40002180F83C100846F0BDC9
:103140000220F0BD002C014000040040004001407E
:1031500010B5040003D094F83D0010B107E0012041
:1031600010BD002084F83C00204600F023F8022027
:1031700084F83D00211D206801F09AFD012084F8AB
:10318000480084F83E0084F83F0084F8400084F84A
:10319000410084F8420084F8430084F8440084F835
:1031A000450084F8460084F8470084F83D0000207C
:1031B00010BD000010B586B0044614216846FDF726
:1031C0001AFA1C4A21681C48914211D1C16941F088
:1031D0000201C161C069002200F0020005900321D4
:1031E0001D20FFF73DFA1D20FFF72CFA06B010BD99
:1031F000124A9142FAD1816941F4003181618169B9
:1032000001F400310591416941F4003141614069A7
:10321000694600F40030059090140090022001905F
:10322000002002900390012004904FF09040FEF7A0
:10323000FBFCDBE7000400400010024000440140BA
:1032400090F83D10012901D001207047022180F83B
:103250003D100168CA6842F00102CA6000680D4969
:10326000884208D0B0F1804F05D00B49884202D087
:103270000A49884207D18168094A1140062906D0C7
:10328000B1F5803F03D0016841F0010101600020E9
:1032900070470000002C0140000400400040014045
:1032A0000700010070B5044690F83C000025012895
:1032B00017D0012684F83C60022084F83D00226883
:1032C00090682F4B184020F47F4090600868502889
:1032D00038D00DDC20284FD005DC90B3102811D158
:1032E0004AE0022070BD302846D040280AD13BE099
:1032F00060282FD070280DD0B0F5805F03D0B0F5D6
:10330000005F12D0012584F83D60002084F83C0065
:10331000284670BDCB68D1E90121206801F019FD74
:103320002068816841F0770109E0CB68D1E901218B
:10333000206801F00EFD2068816841F480418160C1
:10334000E1E719E0CA684968206801F0BDFE502134
:10335000206806E0CA684968206801F0C6FE60215E
:10336000206801F000FDCEE7CA684968206801F0D6
:10337000ABFE40212068F4E7226801461046F0E7E2
:1033800088FFFEFF704770B50446006801694FF082
:103390000005C943890715D4C168C943890711D4F9
:1033A000E91E01610120207720688069800720469E
:1033B00002D0FFF7E7FF04E000F0A7F8204600F096
:1033C00069F9257720680169C943490717D4C1689D
:1033D000C943490713D46FF004010161022020772B
:1033E0002068806910F4407F204602D0FFF7CAFFB2
:1033F00004E000F08AF8204600F04CF925772068B8
:103400000169C943090716D4C168C943090712D421
:103410006FF008010161042020772068C0698007EF
:10342000204602D0FFF7AEFF04E000F06EF8204621
:1034300000F030F9257720680169C943C90617D41F
:10344000C168C943C90613D46FF010010161082097
:1034500020772068C06910F4407F204602D0FFF733
:1034600091FF04E000F051F8204600F013F92577B1
:1034700020680169C943C90708D1C168C943C907A0
:1034800004D1891E0161204600F078F920680169A5
:10349000C943090609D4C168C943090605D46FF0B8
:1034A000800101612046FFF7D4FD20680169C9430E
:1034B000C90509D4C168C943090605D46FF48071F0
:1034C00001612046FFF7C4FD20680169C943490630
:1034D00009D4C168C943490605D46FF040010161B0
:1034E000204600F077F920680169C94389060BD4AA
:1034F000C168C943890607D46FF0200101612046E5
:10350000BDE87040FFF7A6BD70BD704770B50446BA
:1035100090F83C0000260D4601280BD0012084F8CD
:103520003C000C2A4AD007DC82B1042A20D0082AA9
:1035300006D131E0022070BD102A53D0142A63D086
:103540000126002084F83C00304670BD206801F060
:1035500013FC2068816941F008018161206881695C
:1035600021F004018161206881692A69114311E019
:10357000206801F045FC2068816941F400618161A7
:103580002068816921F480618161206881692A69EC
:1035900041EA02218161D4E7206801F071FC2068D2
:1035A000C16941F00801C1612068C16921F00401CD
:1035B000C1612068C1692A69114311E0206801F0E6
:1035C0009FFC2068C16941F40061C1612068C16944
:1035D00021F48061C1612068C1692A6941EA022140
:1035E000C161AEE7206801F0C1FC2068416D41F087
:1035F000080141652068416D21F0040141652068A2
:10360000416D2A69114311E0206801F0E1FC206856
:10361000416D41F4006141652068416D21F4806194
:1036200041652068416D2A6941EA0221416588E7C8
:1036300010B5040003D094F83D0010B107E001205C
:1036400010BD002084F83C00204600F022F8022043
:1036500084F83D00211D206801F02AFB012084F838
:10366000480084F83E0084F83F0084F8400084F865
:10367000410084F8420084F8430084F8440084F850
:10368000450084F8460084F8470084F83D00002097
:1036900010BD70477047000010B50446022269B1A2
:1036A000042912D0082917D00C291CD0102921D0A8
:1036B00094F84300012824D0012010BD94F83E0066
:1036C0000128F9D184F83E201DE094F83F0001283C
:1036D000F2D184F83F2016E094F840000128EBD1A5
:1036E00084F840200FE094F841000128E4D184F8E8
:1036F000412008E094F842000128DDD184F84220FE
:1037000001E084F843200122206801F015FB1549EF
:103710002068154A884207D0904205D0134B984242
:1037200002D0134B984203D1436C43F400434364EB
:103730002068884207D0B0F1804F04D00D498842FC
:1037400001D0904207D181680B4A1140062906D06A
:10375000B1F5803F03D0016841F001010160002014
:1037600010BD0000002C0140004001400044014019
:10377000004801400004004007000100704770B598
:10378000044690F83C00012812D0012584F83C50F2
:10379000022084F83D00204601F04EFC01004FF06D
:1037A000000007D084F83D5084F83C00012070BD33
:1037B000022070BD2168CA6822F04002CA602168F8
:1037C000CA6822F48042CA6084F83D5084F83C0004
:1037D000002070BD704710B5040002D0A06F10B17A
:1037E00007E0012010BD002084F87400204600F09E
:1037F00025F82420A0672068016821F001010160FC
:10380000204601F017FD0128ECD0606A10B1204677
:1038100001F07DFC2068416821F4904141602068FE
:10382000816821F02A0181602068016841F001016E
:1038300001602046BDE8104001F0CDBCF0B587B076
:10384000044614216846FCF7D6FE194920688842D0
:103850002CD11848C16941F40031C161C16901F43A
:1038600000310591416941F400314161416901F440
:1038700000310591416941F4802141614069022490
:1038800000F4802005904FF4004000250326072710
:103890008DE8F10069464FF09040FEF7C5F9082029
:1038A0008DE8F10069460448FEF7BEF907B0F0BDA7
:1038B00000440040001002400004004810B5002100
:1038C0000848FEF7BFFB08490869012802DA401CD6
:1038D000086110BD00200861FCF7F6FEBDE810404D
:1038E000FCF7F7BE0402002044000020062911D294
:1038F000DFE801F00911171D23030068D0F88413D5
:1039000041F0010104E00068D0F8841341F00201A5
:10391000C0F8841370470068D0F8841341F00401A4
:10392000F6E70068D0F8841341F00801F0E700687A
:10393000D0F8841341F01001EAE70068D0F884134E
:1039400041F02001E4E770B506460068D0F88853DE
:10395000D0F89043E90707D0E10705D00121C0F86E
:103960008C133046FEF769FBA80708D5A00706D5DB
:1039700031680220C1F88C033046FEF75FFB680710
:1039800008D5600706D531680420C1F88C0330469D
:10399000FEF755FB280708D5200706D53168082013
:1039A000C1F88C033046FEF74BFBE80608D5E0066D
:1039B00006D531681020C1F88C033046FEF741FB74
:1039C000A80608D5A00606D531682020C1F88C03CA
:1039D0003046FEF71BFC70BD2DE9F0470446006839
:1039E000D0F88883D0F890734668C5685FEAC8311C
:1039F0004FF001090DD5F9030BD54FF48031C0F814
:103A00008C1384F8C190002084F8C0002046FEF793
:103A10009AFA5FEA883009D5B80307D521684FF4D0
:103A20000030C1F88C032046FEF785FAF00708D075
:103A3000E80706D02168C1F8089005212046FEF766
:103A40007DFAB00708D5A80706D52168022088604E
:103A500005212046FEF773FA700708D5680706D5DA
:103A600021680420886005212046FEF769FA3007A6
:103A700008D5280706D5216808208860052120463A
:103A8000FEF75FFAF00608D5E80606D52168102093
:103A9000886005212046FEF7B7FBB00607D5A806CB
:103AA00005D52168202088602046FEF7AEFB700611
:103AB00008D5680606D52168402088600521204683
:103AC000FEF7A1FBBDE8F087F0B50024E425076808
:103AD00005EBC11657F806C0B82505EBC1157D5991
:103AE000202A27D00CDC042A15D004DC012A12D0AD
:103AF000022A2BD11EE0082A1CD0102A26D10AE067
:103B0000402A08D0802A15D0B2F5807F03D0B2F5C4
:103B1000007F1BD10EE04FF0BC0E0EEBC11E5A68A9
:103B200047F80E204FF0C00E07680EEBC1119A68DF
:103B30007A500BE0C42404EBC1145A683A51C827E8
:103B4000046807EBC1119A6862501024FE21A1405D
:103B50001A682CEA010CA240D96842EA0C02A14082
:103B600011431A69D3F814C01746A2400A430CFA4D
:103B700004FC99694CEA020CA14041EA0C01082FAF
:103B800006D1AA0504D4AA0102D4DA69A2401143DD
:103B900000688151F0BD2DE9F04107468846006874
:103BA000842202EBC81146588C2202EBC8114558FA
:103BB0004FF08802F30702EBC81407D0E90705D0DD
:103BC0000121015141463846FEF7B8F9B00708D542
:103BD000A80706D539680220085141463846FEF745
:103BE000AEF9700708D5680706D539680420085172
:103BF00041463846FEF7A4F9300708D5280706D510
:103C000039680820085141463846FEF79AF9F0060F
:103C100008D5E80606D539681020085141463846CF
:103C2000FEF7F2FA700608D5680606D53968402016
:103C3000085141463846FEF7E6FA300608D5280610
:103C400006D539688020085141463846FEF774F998
:103C5000F00509D5E80507D539684FF4807008519B
:103C600041463846FEF769F9B00509D5A80507D5DC
:103C700039684FF40070085141463846FEF79FFA04
:103C8000700509D5680507D539684FF4806008517B
:103C900041463846FEF792FA300509D5280507D582
:103CA00039684FF40060085141463846FEF789FAFA
:103CB000F00409D5E80407D539684FF4805008515D
:103CC00041463846FEF77CFAB00409D5A80407D56A
:103CD00039684FF40050085141463846FEF732F932
:103CE000700409D5680407D539684FF4804008513D
:103CF00041463846FEF7A0F9BDE8F0812DE9F04FC6
:103D00008024036804EBC1169C5924F070449C5134
:103D100003689A469D59E82404EBC114A64653F85B
:103D20000490E42404EBC114A3461C59D3F8A03337
:103D300025F0200755693D4325F4006795693D430B
:103D400025F48067D5693D4325F0C067156A3D437A
:103D500025F00067556A3D4325F07047956A3D435D
:103D6000176B25F40035B7F1005F01D145F400353C
:103D700025F04007556BD2F848802F4327F4802C5C
:103D8000176D47EA0C0727F0FC7748EA070892F816
:103D9000387029F01F0C07F01F0747EA0C0727F0BF
:103DA000004CD76B47EA0C0725B924F4807C146CCF
:103DB00044EA0C04D2F844C0BCF5606F02D0BCF5F4
:103DC000F05F01D1402D03D124F4F0544CEA0404F7
:103DD000D56C052921D2DFE801F003090F151B007E
:103DE000D26A23F4003343EA420316E0D26A23F492
:103DF000802343EA820310E0D26A23F4002343EADB
:103E0000C2030AE0D26A23F4801343EA021304E0F7
:103E1000D26A23F4001343EA42134AF80680066884
:103E200046F80E70066846F80B40D424026804EB8E
:103E3000C11155500068C0F8A033BDE8F08FFEE70F
:103E400010B500210948FCF7A9FE00210848FCF73D
:103E5000A5FE042207490548FDF786FA0549022216
:103E6000BDE81040091F0248FDF77EBAB4000020EB
:103E700004010020A60000209FED2A2ADFED2A2A57
:103E80009FED2A3A2A4B00B50022B0EE421AF0EE1E
:103E9000620AB0EE430A991C2648FCF769FC2548E3
:103EA0000022B0EE421AF0EE620AB0EE430A204958
:103EB0001C30FCF75DFC1F480022B0EE421AF0EE09
:103EC000620AB0EE430A191D1C38FCF751FC9FED45
:103ED0001A2A18480122B0EE421ADFED180A9FEDA7
:103EE000180A991D7030FCF743FC11491148012252
:103EF000B0EE421ADFED130A9FED130A091F3830A6
:103F0000FCF736FC0A490B480122891EB0EE421A22
:103F1000DFED0E0A9FED0E0A54305DF804EBFCF75E
:103F200027BC0000CDCCCC3D409B753E4010873C6B
:103F3000A6000020140C00100AD7A33D05A284415E
:103F40006E4706BCFE9B04C17058863BAE817F4124
:103F5000292F00BC10B5404C2DED028B9FED3D8A02
:103F600084ED348A84ED358A9FED3C0AF0EE483AC0
:103F700084ED390A84ED3A0A9FED390AB7EE003A2A
:103F800084ED370A84ED380A9FED360AF0EE482AB0
:103F900084ED320AB3EE0B0A84ED330A9FED322A28
:103FA000F2EE091AB0EE481ADFED300A9FED300A42
:103FB00004F1080000F066FDF0EE483AB7EE003A72
:103FC000F0EE482A9FED2B2AF7EE001AB0EE481AC1
:103FD000DFED290A9FED290A04F1380000F052FDB7
:103FE000F0EE483AB2EE093AF0EE482A9FED242A64
:103FF000F2EE041AB0EE481ADFED220A9FED220A13
:1040000004F1680000F03EFDF0EE483AB2EE093AE5
:10401000F0EE482A9FED1D2ADFED1D1AB0EE481A7A
:10402000DFED1C0A9FED1C0A04F1980000F02AFD48
:104030000020A070E0702070607018489FED180A92
:1040400080ED008A80ED020A80ED018ABDEC028BD2
:1040500010BD000000000000780A00108FC2F53C7F
:104060000AD7233C3333BB4100409C4317B7513B35
:10407000006F813C369483436C09793B3EE8593CA0
:104080000712DC421EA7E83D00913D4142807A4381
:10409000CDCCCC3DF1634C3D9EEF6340A00C0010B5
:1040A0000000C84210B5284CFAEE0E3A2DED028BF6
:1040B000B2EE0E3A9FED218AF2EE042A9FED1E2AFF
:1040C000F3EE041AB0EE481ADFED1D0A9FED1D0A4B
:1040D000201D00F0D7FCDFED1D3AB3EE043AF0EE00
:1040E000482AB0EE482ADFED1A1AB0EE481AF0EE70
:1040F000480AB8EE000A04F1340000F0C3FC84ED75
:10410000098A84ED1A8A84ED1B8A9FED120A84EDD8
:104110001C8A84ED190A0020C4F88800B2EE0C0A4B
:10412000C4F88C0084ED200AB3EE000A84ED1F0A67
:10413000BDEC028B10BD00000000964300000000A3
:10414000CDCC4C3DCDCC4C3E680B001000008CC259
:10415000000070420000484270B58AB00024069406
:104160000794182168460894FCF745FA2A484FF04E
:10417000A041012501604FF440310561C0E90114FF
:10418000447680F82040A902C1620426C6614FF43B
:10419000E071C460816280F830500821416104768A
:1041A0004463FCF767FF08B1FCF7DAFC06A91A487C
:1041B0000694FCF743FD08B1FCF7D2FC009501958D
:1041C0000225CDE902540494694613480594FCF78E
:1041D000A5FD08B1FCF7C4FC009569460E480195A1
:1041E000FCF79CFD08B1FCF7BBFC0320009001909C
:1041F00069460948FCF792FD08B1FCF7B1FC00964E
:10420000694605480196FCF789FD002801D0FCF7B6
:10421000A7FC0AB070BD0000B400002070B586B0E5
:1042200018216846FCF7E7F91D481C490125016083
:104230004FF4403100240561C0E90114447680F850
:104240002040A902C1620226C6614FF4E071C46039
:10425000816280F830500821416104764463FCF7A4
:1042600009FF08B1FCF77CFCCDE9026400950195DB
:10427000049469460A480594FCF750FD08B1FCF720
:104280006FFC0320CDE9000669460548FCF746FDB2
:10429000002801D0FCF764FC06B070BD000100509E
:1042A00004010020104810B50E490160042141604E
:1042B00000214FF04072C0E9021212120261120195
:1042C00042610176012242768176C2760177427799
:1042D000FDF72EFB002803D0BDE81040FCF740BCE2
:1042E00010BD000000640040DC010020054808B556
:1042F000416941F001014161406900F00100009015
:1043000008BD00000010024070B586B01421684658
:10431000FCF771F92A48416941F400214161416982
:1043200001F400210591416941F480014161416935
:1043300001F480010591416941F400314161416915
:1043400001F400310591416941F4802141614069E6
:104350001C4E00F48020059001224FF48651304617
:10436000FDF77FFD00224FF4C0413046FDF779FD97
:1043700000244FF44040CDE90004694612480294FD
:10438000FDF752FC4FF4E04000900125CDE90154C7
:10439000694630460394FDF747FCC020CDE900058F
:1043A0000320CDE9025069463046FDF73DFC280464
:1043B000FEF7AAF86804FEF7A7F806B070BD000083
:1043C00000100240000400480008004870B5B0B07A
:1043D00000242D942E9426942794289454216846E2
:1043E0002994FCF708F92A942B9424211DA82C94D5
:1043F000FCF701F9202115A8FCF7FDF86E486D497E
:10440000C0E900148460FDF727FE08B1FCF7A8FBA3
:104410000C216948FDF798FD08B1FCF7A1FB0A21C2
:104420006548FDF7CFFE08B1FCF79AFB4FF48030EA
:104430002D9040112E902DAA01215F48FDF71CFD03
:1044400008B1FCF78DFB4FF43450CDE9260402206F
:104450000825CDE9280526AA00215748FDF7D7FEF3
:1044600008B1FCF77DFB1020CDE900040120029487
:10447000CDE90340C006CDE90840059480000694CC
:1044800007940A94CDE90B4086004015CDE90E460D
:10449000CDE910040D94129413946A460021464805
:1044A0001494FDF7D4FF08B1FCF75AFB009409946B
:1044B0006A46012140480F94FDF7C9FF08B1FCF797
:1044C0004FFB18202A902AAB012200213A48FDF721
:1044D000DBFE08B1FCF744FB2AAB0422002136487E
:1044E000FDF7D2FE08B1FCF73BFBB420CDE91D403F
:1044F0004FF40041CDE91F41491022AA219182E8E1
:104500005100000725901DAA00212B48FDF74EFD04
:1045100008B1FCF725FB1DAA01212748FDF746FD40
:1045200008B1FCF71DFB0426CDE91546CDE917546B
:1045300019941A941B9415AB012200211E481C9457
:10454000FDF752FF08B1FCF70BFBCDE9165615AB92
:10455000042201211848FDF747FF08B1FCF700FBD2
:10456000169415AB0222002113481794FDF73CFF67
:1045700008B1FCF7F5FA15AB082201210E48FDF74A
:1045800033FF08B1FCF7ECFA26AA01210A48FDF72F
:104590003EFE08B1FCF7E4FA01222AAB11460648B8
:1045A000FDF772FE08B1FCF7DBFA0348FDF7D0FD1A
:1045B00030B070BD00740140040200200B4810B5FB
:1045C000094901600321416040F6FF71C1604FF469
:1045D0007A718160FDF7ACFF002803D0BDE8104080
:1045E000FCF7BEBA10BD000000300040E002002021
:1045F00010B592B01C210BA8FBF7FDFF2C216846DB
:10460000FBF7F9FF1F481E490024016040F66B21AB
:10461000C0E901140A21C0E903148021C0E9054161
:10462000FEF796FD08B1FCF79BFA1648FFF700F875
:1046300008B1FCF795FA60200B900520CDE90C0439
:104640000E940F94109400220BA90E481194FEF7BB
:104650005DFF08B1FCF784FA00944FF40050CDE9F7
:1046600004400194029403940694694605480A9410
:10467000FEF7F2FC002801D0FCF772FA12B010BD70
:10468000004401403C03002010B58CB00024059488
:1046900006940794142168460894FBF7ACFF1A4867
:1046A00009940A9417490B9401602421C0E901146C
:1046B00042F21071C0E903148461FEF749FD08B1AC
:1046C000FCF74EFA4FF48050059005A90E48FEF70E
:1046D000E9FD08B1FCF744FA009469460A480194E0
:1046E000FFF74DF808B1FCF73BFA099409A9064811
:1046F0000B94FEF7F3FC002801D0FCF731FA0CB064
:1047000010BD000000040040F00200200D4810B56C
:104710000B4901604FF4E1314160002181600C22BE
:10472000C160C0E904128161C16101624162FFF7A9
:1047300052F8002803D0BDE81040FCF711BA10BDB4
:104740000044004088030020FEE7FEE770B5002427
:104750000021204600F0D9F80025002000F081F962
:104760006D1CEDB2802DF8D3641CE4B2082CEFD39D
:1047700070BD000010B5064C012240212046FDF717
:1047800070FB20460122BDE810408021FDF769BB87
:10479000000400482DE9F0410024124E0746802510
:1047A00025FA04F23A4080213046FDF75AFB0122F7
:1047B00040213046FDF755FB002240213046FDF7F1
:1047C00050FB641CE4B2082CEAD30122402130469D
:1047D000FDF747FB3046BDE8F04100224021FDF7E0
:1047E00040BB00000004004810B50B4C01228021A2
:1047F0002046FDF736FB012240212046FDF731FB24
:10480000002280212046FDF72CFB20460022BDE837
:1048100010404021FDF725BB0004004810B5094CAD
:10482000002280212046FDF71CFB0122402120466A
:10483000FDF717FB20460122BDE810408021FDF75F
:1048400010BB00000004004810B500204FF47A723D
:104850000021491C9142FCD3401C9042F8D3FFF741
:1048600089FFAE2000F0ECF8D52000F0E9F88020B8
:1048700000F0E6F8A82000F0E3F83F2000F0E0F8B0
:10488000D32000F0DDF8002000F0DAF8402000F03E
:10489000D7F8A12000F0D4F8C82000F0D1F8DA2031
:1048A00000F0CEF8122000F0CBF8812000F0C8F81C
:1048B000CF2000F0C5F8D92000F0C2F8F12000F0B8
:1048C000BFF8DB2000F0BCF8302000F0B9F8A420DD
:1048D00000F0B6F8A62000F0B3F88D2000F0B0F894
:1048E000142000F0ADF8AF2000F0AAF8BDE81040A9
:1048F000FFF72CBF0246012004E0CB0700D0504355
:10490000524349080029F8D1704710B50C4640F0D1
:10491000B00000F095F8102040EA141000F090F874
:1049200004F00F00BDE8104000F08AB82DE9F04116
:104930000746CE004000083E801E15464FF0FF3867
:10494000F1B2C0B2FFF7E1FF1148002400EB0515FA
:104950002819A0F5805090F8000E00F082F8641C31
:10496000E4B2082CF4D308EB4700F1B2C0B2FFF771
:10497000CCFF00242819A0F5805090F8080E00F014
:1049800070F8641CE4B2082CF4D3BDE8F081000098
:104990005A6200082DE9F0411D4617460E46804632
:1049A000002415E0291B1020491EFFF7A3FFB7FBC9
:1049B000F0F000F00F0206EB0400C1B20A2A4046F4
:1049C00001D2303200E03732FFF7B0FF641CE4B2AE
:1049D000AC42E7D3BDE8F0812DE9F04700241E4644
:1049E0008846814615460A2713E0311B0A20491ED6
:1049F000FFF780FFB5FBF0F0B0FBF7F107FB11020A
:104A000008EB0400C1B248463032FFF78FFF641C48
:104A1000E4B2B442E9D3BDE8F0872DE9F041154690
:104A20000E460746002406E03019C1B23846FFF7AB
:104A30007DFF641CE4B22A5D002AF5D1BDE8F08157
:104A400010B50446FFF7D0FE7820FFF7A3FE002044
:104A5000FFF7A0FE2046FFF79DFEBDE81040FFF7E0
:104A6000DDBE10B50446FFF7BFFE7820FFF792FECB
:104A70004020FFF78FFE2046FFF78CFEBDE8104078
:104A8000FFF7CCBE80EC080A9FED030A80ED080A10
:104A900080ED090A70470000000000007047704771
:104AA000FDF780BD30B597B028216846FBF7A3FD20
:104AB00014210AA8FBF79FFD1C210FA8FBF79BFD03
:104AC000092000904FF4A0200024CDE9010401202A
:104AD0000225CDE906050490000408904FF4E0108B
:104AE00009906846FDF7BCFFA0B90F20CDE90A0583
:104AF0006802CDE90C4002210AA80E94FDF7A6FE3B
:104B000040B968030F90801015900FA8FDF7DAFDEB
:104B1000002801D0FCF724F817B030BD0248016826
:104B200041F470010160704788ED00E02DE9F05F0D
:104B30005748FEF728FCFDF799F9564CE168401AF2
:104B4000B0F5FA7F07D3FDF791F9E0604FF480519B
:104B50005148FDF77EF9FBF7C1FDFBF7C4FDFBF7FC
:104B6000C7FDFBF7CAFDFBF7CDFD4C4F4FF4804A64
:104B700051463846FDF768F920B96178FE2901D819
:104B8000491C61704FF4004529463846FDF75CF931
:104B900020B92278FE2A01D8521C2270A846294644
:104BA0003846FDF751F93E4E002520B951463846AA
:104BB000FDF74AF920B36078322821D920783228CD
:104BC0001ED9B078C10710D020F0010161F30001B7
:104BD000B1700F213348FDF722FCF570B07820F05A
:104BE0008000B0707570357006E020F08000F570C0
:104BF00040F00100B070757025706570BDE8F09FE1
:104C000041463846FDF720F920B951463846FDF7B0
:104C10001BF970B1607814280BD32078142808D3BE
:104C2000B0780F2120F00100B0701E48FDF7F7FBAF
:104C3000E2E7C3464146B9463846FDF705F91A4E44
:104C40000127DFF86880012805D120780A2802D9D9
:104C50003078401C0AE051464846FDF7F5F8012837
:104C600008D160780A2805D93078401E307088F85D
:104C70000070C1E759464E464846FDF7E5F8012861
:104C8000BCD151463046FDF7DFF80128B4D0B5E776
:104C9000F002002044000020000400480008004802
:104CA000780A00100402002000000020010000200B
:104CB000F0B502681B4B1C4F4FF0804C984203D05C
:104CC000604501D0B84203D122F070044A68224303
:104CD000164C174D174E984209D0604507D0B84280
:104CE00005D0A04203D0A84201D0B04203D122F4A3
:104CF0004077CA683A434F6922F080023A43026023
:104D00008A68C2620A688262984205D0A04203D0D3
:104D1000A84201D0B04201D109690163012141617A
:104D2000F0BD0000002C01400004004000400140A4
:104D3000004401400048014010B501F01F0301216B
:104D4000046A99408C430462016A9A4011430162EB
:104D500010BD10B5846842EA032224F47F440A435C
:104D60002243826010BD826822F070020A4342F042
:104D70000701816070470000F0B5026A22F001026D
:104D80000262056A43688269184C25F002052240D8
:104D90000C6822F0030214438A68164E2A43144D0D
:104DA000154FDFF858C0A84205D0B04203D0B84232
:104DB00001D0604506D122F0080ECA6842EA0E0210
:104DC00022F00402A84205D0B04203D0B84201D07C
:104DD000604505D14D6923F440731D438B692B4316
:104DE00043608461496841630262F0BD8FFFFEFF4A
:104DF000002C0140004001400044014000480140B7
:104E000030B5026A22F010020262046A42688369C5
:104E1000164D2B400D6823F4407343EA052524F01A
:104E200020038C6843EA0413114CA04207D1CC68DC
:104E300023F0800343EA041323F0400308E00D4C01
:104E4000A04205D00C4CA04202D00C4CA04207D18D
:104E50004C6922F4406242EA84028C6942EA84028C
:104E60004260856149688163036230BDFF8FFFFE48
:104E7000002C014000400140004401400048014036
:104E800030B5026A22F480720262046A4268C36921
:104E9000164D2B400D6823F003031D4324F40073CB
:104EA0008C6843EA0423124CA04207D1CC6823F457
:104EB000006343EA042323F4806308E00D4CA0421E
:104EC00005D00D4CA04202D00C4CA04207D14C6939
:104ED00022F4405242EA04128C6942EA041242600F
:104EE000C5614968C163036230BD00008FFFFEFFEA
:104EF000002C0140004001400044014000480140B6
:104F000030B5026A22F480520262046A4268C369C0
:104F1000114D24F400542B400D6823F4407343EAF0
:104F200005238D6844EA05340C4DA84208D00C4D89
:104F3000A84205D00B4DA84202D00B4DA84204D187
:104F40004D6922F4804242EA85124260C361496899
:104F50000164046230BD0000FF8FFFFE002C0140A1
:104F600000400140004401400048014030B5026A61
:104F700022F480320262046A4268436D0F4D2B4076
:104F80000D681D4324F400330C8943EA04430C4CA0
:104F9000A04208D00B4CA04205D00B4CA04202D03E
:104FA0000A4CA04204D14C6922F4803242EA042225
:104FB0004260456549688165036230BD8FFFFEFF31
:104FC000002C0140004001400044014000480140E5
:104FD00030B5026A22F480120262046A4268436DAC
:104FE000104D24F400142B400D6843EA05230D896D
:104FF00044EA05540C4DA84208D00C4DA84205D0F7
:105000000B4DA84202D00B4DA84204D14D6922F4A9
:10501000802242EA8522426043654968C165046294
:1050200030BD0000FF8FFFFE002C0140004001401A
:10503000004401400048014070B505680024AA689A
:1050400022F070034A681A431E4B1A400B68134340
:10505000AB604A6812F00F0F31D11211082A2ED21C
:10506000DFE802F02E2E2E2E0B2127040B69D1E94A
:1050700002210068FFF76DFE22E00A68052A10D0C1
:105080000268136A156A25F00105156202689569C0
:10509000096925F0F00545EA011191610068036294
:1050A0000EE0012070BD0A698968006800F00CF804
:1050B00006E00A698968006800F017F800E001243A
:1050C000204670BDF8FFFEFF10B5036A046A24F0A5
:1050D00001040462846924F0F00444EA021423F019
:1050E0000A020A438461026210BD10B5036A23F00C
:1050F000100303628369046A23F4704343EA0232B3
:1051000024F0A00343EA01118261016210BD90F80E
:105110002410C90706D001684A68836A22F4003265
:105120001A434A6090F82410890706D501684A6836
:10513000C36A22F480321A434A6090F82410490767
:1051400006D501684A68036B22F480221A434A603C
:1051500090F82410090706D501684A68436B22F4C9
:1051600000421A434A6090F82410C90606D5016827
:105170008A68836B22F480521A438A6090F8241064
:10518000890606D501688A68C36B22F400521A4367
:105190008A6090F82410490611D501684A68036CAA
:1051A00022F480121A434A60016CB1F5801F06D1C7
:1051B00001684A68436C22F4C0021A434A6090F8BE
:1051C0002410090606D501684A68806C22F4002282
:1051D00002434A607047F8B500260446C0F8806074
:1051E000FCF744FE0546206800686FF07E47000724
:1051F00008D52B4600224FF400112046009700F0FE
:10520000BBF860B92068006840070AD52B46002229
:105210004FF480012046009700F0AEF808B103205B
:10522000F8BD2020A067E067266684F8746000203F
:10523000F8BD000070B5044680682169E269084342
:10524000616900251143226808431168444B1940E5
:105250000143116020684168E26821F44051114324
:105260004160A169206A084321688A6822F430629B
:1052700002438A603B492068884210D13A48006B5B
:1052800010F0030011D0012805D0022805D0032812
:105290000DD102210CE004210AE0082108E0334985
:1052A000884202D03249884201D1002100E0102119
:1052B000E3694FF400422F484FF6EF76934227D12F
:1052C000092941D2DFE801F005080E400B404040BB
:1052D0002200FDF75FFB04E0FDF774FB01E0FDF742
:1052E00089FB90B34100606801EB5001B1FBF0F025
:1052F00080B2A0F11001B14226D84FF6F071014002
:10530000C0F3420001432068C16023E01046E9E792
:10531000092919D2DFE801F005080E180B18181832
:105320001A00FDF737FB04E0FDF74CFB01E0FDF749
:1053300061FB50B1616800EB5100B0FBF1F080B24D
:10534000A0F11001B14203D9012503E01046F1E7B5
:105350002168C86000206066A066284670BD000015
:10536000F369FFEF003801400010024000440040A4
:105370000048004000127A002DE9F0479A4617468F
:105380000E4604464FF000094FF02008089D4AE001
:10539000681C48D0FCF76AFDA0EB0A00A8422AD896
:1053A0004DB32068016849073DD5C069C043000579
:1053B00039D421684FF400600862206850E8001F6B
:1053C00021F4D07140E80012002AF6D1206808309C
:1053D00050E8001F21F0010140E80012002AF5D139
:1053E000C4F87880C4F87C80C4F8808084F8749015
:1053F0000320BDE8F087216851E8000F20F4D07049
:1054000041E80002002AF6D12068083050E8001F69
:1054100021F0010140E80012002AF5D1C4F878809B
:10542000C4F87C80E2E72068C06936EA000004D056
:105430000020B842ACD00020DBE70120F9E7FEE70E
:105440000907090E002804DB00F1E02080F80014B1
:10545000704700F00F0000F1E02080F8141D704745
:105460000C46054672B60F211748FCF7D8FF0121FC
:1054700016A20846FFF7D1FA19A201210220FFF770
:10548000CCFA2A4603210220FFF7C7FA15A2012110
:105490000320FFF7C2FA0321062322460846FFF73E
:1054A0009BFA114D05242868446300260F48FDF738
:1054B00072F828684463C820FCF7A4FB2868466398
:1054C000C820FCF79FFBF1E7040200204572726FD1
:1054D000723A4173736572744661696C0000000032
:1054E000463A00004C3A00003C030020E002002055
:1054F0002DED028BFDF75EF8FEF7BEFCFEF72AFDF0
:10550000FEF7D0FDFFF7CEFAFEF7FEFEFEF7EEFE49
:10551000FEF722FEFEF75AFFFEF780FEFFF7B4F813
:10552000FEF7C0FEFFF7F2F8FFF762F8FFF746F864
:10553000FC4C052021684863FFF786F9FAA2022196
:105540000120FFF76AFAFEF77BFC00212046FEF7F8
:10555000A3F8F8494FF434500860F648002680302C
:1055600006604FF40031F448FCF728FF4FF4802127
:10557000F148FCF723FF0F21EF48FCF750FFFBF742
:1055800077F94FF4FA70FCF73DFBEC48FDF758FE55
:10559000E948006850F88C1F41F010010160206854
:1055A0004663DFF89CA3DFF89C83DFF89CB3E74FEA
:1055B000E74D9FEDE88ADFF8A093E848FCF7EBFFA2
:1055C000E7484C4690ED040AE64889ED010A9AED59
:1055D000040A89ED020A98ED040A89ED030ADBED5D
:1055E000040AC9ED040AD0ED040ADF48C9ED050A32
:1055F000D0ED040ADD48C9ED060AD5ED1C0AC9ED57
:10560000080AD5ED1B0AC4ED070AD5ED190AC4ED49
:10561000090AD5ED1D0AC4ED0A0AD5ED200A60EE8F
:10562000800AC4ED0B0AD5ED1F0A20EE800A84ED36
:105630000C0A97ED020A84ED0D0A97ED010A84ED3C
:105640000E0A97ED030A84ED0F0AFBF7D1F9C7485C
:10565000FBF7F8F9607810B16670FFF777F82078FB
:1056600007287DD2DFE800F004FCFBFAF9F8F70028
:10567000BFA201210220FFF7D0F994ED020A022314
:105680000421BDEEC00A184610EE102AFFF7A4F957
:105690002E2206210220FFF749F994ED020A0A2181
:1056A0000123FDEEC00AF8EEE00A30EE600A20EEBB
:1056B000080ABDEEC00A10EE100A90FBF1F20721B5
:1056C0000220FFF789F9ABA209210220FFF7A5F913
:1056D00094ED040AB5EEC00AF1EE10FA01DB2022C7
:1056E00000E02D220C210220FFF720F994ED040A9E
:1056F000B5EEC00AF1EE10FA01DCB1EE400A01236A
:10570000BDEEC00A0D21022010EE102AFFF764F949
:105710002E220E210220FFF709F994ED040AB5EEBE
:10572000C00AF1EE10FA02DDF0EE400A01E0F1EEFF
:10573000400AB5EEC00AF1EE10FA01DCB1EE400A03
:105740000223BDEEC00A0F211846B8EEC00A30EEA3
:10575000C00A20EE080ABDEEC00A10EE102A00E0D2
:10576000F4E3FFF739F984A201210320FFF755F98B
:1057700094ED030A02230421BDEEC00A032010EEBB
:10578000102AFFF729F92E2206210320FFF7CEF871
:1057900094ED030A0A210123FDEEC00AF8EEE00AA7
:1057A00030EE600A20EE080ABDEEC00A10EE100AC4
:1057B00090FBF1F207210320FFF70EF96FA20921F8
:1057C0000320FFF72AF994ED050AB5EEC00AF1EEC1
:1057D00010FA01DB202200E02D220C210320FFF72C
:1057E000A5F894ED050AB5EEC00AF1EE10FA01DC59
:1057F000B1EE400A0123BDEEC00A0D21032010EED8
:10580000102AFFF7E9F82E220E210320FFF78EF869
:1058100094ED050AB5EEC00AF1EE10FA02DDF0EEE5
:10582000400A01E0F1EE400AB5EEC00AF1EE10FACE
:1058300001DCB1EE400A0223BDEEC00A0F210320B5
:10584000B8EEC00A30EEC00A20EE080ABDEEC00A6B
:1058500010EE102A05E07FE33AE388E21EE290E1D1
:10586000D5E0FFF7B9F846A201210420FFF7D5F8EB
:1058700094ED010A04210223BDEEC00A084610EE91
:10588000102AFFF7A9F82E2206210420FFF74EF870
:1058900094ED010A0A210123FDEEC00AF8EEE00AA8
:1058A00030EE600A20EE080ABDEEC00A10EE100AC3
:1058B00090FBF1F207210420FFF78EF831A20921B5
:1058C0000420FFF7AAF894ED060AB5EEC00AF1EE3F
:1058D00010FA01DB202200E02D220C210420FFF72A
:1058E00025F894ED060AB5EEC00AF1EE10FA01DCD7
:1058F000B1EE400A0123BDEEC00A0D21042010EED6
:10590000102AFFF769F82E220E210420FFF70EF867
:1059100094ED060AB5EEC00AF1EE10FA34DDF0EEB1
:10592000400A33E03C0300204C6F6164696E672ECF
:105930002E2E00009C74014004020020F002002082
:10594000140C0010300C00104C0C0010A00C0010B7
:10595000680B00100000C84200000020E002002098
:10596000F80B0010680C0010840C00109800002048
:1059700056693A0049693A00566F3A00496F3A0051
:1059800056633A0049633A00F1EE400AB5EEC00AA8
:10599000F1EE10FA01DCB1EE400A0223BDEEC00ABE
:1059A0000F210420B8EEC00A30EEC00A20EE080A2B
:1059B000BDEEC00A10EE102AFFF70EF8FE4C20785C
:1059C00020B1012813D0022807D101E0FBA200E09A
:1059D000FDA201210846FFF720F860780628BFF4F1
:1059E000ECADDFE800F006030E081210E5E5F9A2C1
:1059F000EFE7FBA200E0FCA20B210120FFF70DF86E
:105A0000DBE5FBA2F8E7FCA2F6E7FDA2F4E7012143
:105A1000FDA20846FFF701F8FEA201210220FEF7D1
:105A2000FCFF94ED070AB5EEC00AF1EE10FA01DBB7
:105A3000202200E02D2204210220FEF777FF94EDC2
:105A4000070AB5EEC00AF1EE10FA01DCB1EE400A29
:105A50000323BDEEC00A0521022010EE102AFEF736
:105A6000BBFFEDA209210220FEF7D7FF94ED080A43
:105A7000B5EEC00AF1EE10FA01DB202200E02D2283
:105A80000C210220FEF752FF94ED080AB5EEC00A81
:105A9000F1EE10FA01DCB1EE400A0323BDEEC00ABC
:105AA0000D21022010EE102AFEF796FFDBA2012145
:105AB0000320FEF7B2FF94ED090AB5EEC00AF1EE3D
:105AC00010FA01DB202200E02D2204210320FEF742
:105AD0002DFF94ED090AB5EEC00AF1EE10FA01DCD3
